{
  "contractName": "GuessGame",
  "abi": [
    {
      "anonymous": false,
      "inputs": [
        {
          "indexed": false,
          "internalType": "uint256",
          "name": "playerChoice",
          "type": "uint256"
        },
        {
          "indexed": false,
          "internalType": "uint256",
          "name": "computerChoice",
          "type": "uint256"
        },
        {
          "indexed": false,
          "internalType": "uint256",
          "name": "result",
          "type": "uint256"
        }
      ],
      "name": "GuessResult",
      "type": "event"
    },
    {
      "constant": false,
      "inputs": [
        {
          "internalType": "uint256",
          "name": "playerChoice",
          "type": "uint256"
        },
        {
          "internalType": "uint256",
          "name": "computerChoice",
          "type": "uint256"
        }
      ],
      "name": "play",
      "outputs": [
        {
          "internalType": "bool",
          "name": "",
          "type": "bool"
        }
      ],
      "payable": true,
      "stateMutability": "payable",
      "type": "function"
    }
  ],
  "bytecode": "0x608060405234801561001057600080fd5b506101ed806100206000396000f3fe60806040526004361061001e5760003560e01c80637bc49a9514610023575b600080fd5b6100596004803603604081101561003957600080fd5b810190808035906020019092919080359060200190929190505050610073565b604051808215151515815260200191505060405180910390f35b60008083118015610085575060038311155b80156100915750600082115b801561009e575060038211155b156101ad57818314156100f8577fa70bef6827988aad0390a3cec93a1e34f5b83b132ad302b0a0afc8d1a16a7d0b8383600160405180848152602001838152602001828152602001935050505060405180910390a16101a4565b6003600183018161010557fe5b0683141561015a577fa70bef6827988aad0390a3cec93a1e34f5b83b132ad302b0a0afc8d1a16a7d0b8383600260405180848152602001838152602001828152602001935050505060405180910390a16101a3565b7fa70bef6827988aad0390a3cec93a1e34f5b83b132ad302b0a0afc8d1a16a7d0b8383600360405180848152602001838152602001828152602001935050505060405180910390a15b5b600190506101b2565b600090505b9291505056fea265627a7a72315820d53c99a816aab442da6b5adfe6aa9e829ff39a6fb11aacdda4ed7ee2114077cb64736f6c63430005100032",
  "source": "// SPDX-License-Identifier: MIT\r\npragma solidity >=0.4.22 <0.8.0;\r\n\r\n/**\r\n * The GuessGame contract does this and that...\r\n */\r\ncontract GuessGame {\r\n\r\n  event GuessResult(uint playerChoice,uint computerChoice,uint result);\r\n  \r\n  function play (uint playerChoice, uint computerChoice) public payable returns(bool) {\r\n    if (playerChoice > 0 && playerChoice <= 3 && computerChoice > 0 && computerChoice <= 3) {\r\n      if (playerChoice == computerChoice) {\r\n        emit GuessResult(playerChoice, computerChoice, 1);\r\n      } else if (playerChoice == (computerChoice + 1) % 3) {\r\n        emit GuessResult(playerChoice, computerChoice, 2);\r\n      } else {\r\n        emit GuessResult(playerChoice, computerChoice, 3);\r\n      }\r\n      return true;\r\n    } else {\r\n      return false;\r\n    } \r\n  }\r\n}\r\n",
  "sourcePath": "D:/workspace/js/demo01/contracts/GuessGame.sol",
  "compiler": {
    "name": "solc",
    "version": "0.5.16+commit.9c3226ce.Emscripten.clang"
  },
  "schemaVersion": "3.3.2",
  "updatedAt": "2020-12-29T10:34:06.883Z",
  "networkType": "ethereum",
  "devdoc": {
    "methods": {}
  },
  "userdoc": {
    "methods": {},
    "notice": "The GuessGame contract does this and that..."
  }
}